{
  "contractName": "bankingSystem",
  "abi": [
    {
      "constant": true,
      "inputs": [
        {
          "name": "",
          "type": "address"
        }
      ],
      "name": "Balance",
      "outputs": [
        {
          "name": "",
          "type": "uint256"
        }
      ],
      "payable": false,
      "stateMutability": "view",
      "type": "function"
    },
    {
      "constant": true,
      "inputs": [
        {
          "name": "",
          "type": "address"
        }
      ],
      "name": "isDeposited",
      "outputs": [
        {
          "name": "",
          "type": "bool"
        }
      ],
      "payable": false,
      "stateMutability": "view",
      "type": "function"
    },
    {
      "constant": true,
      "inputs": [
        {
          "name": "",
          "type": "address"
        }
      ],
      "name": "TimeOfDeposit",
      "outputs": [
        {
          "name": "",
          "type": "uint256"
        }
      ],
      "payable": false,
      "stateMutability": "view",
      "type": "function"
    },
    {
      "constant": true,
      "inputs": [
        {
          "name": "",
          "type": "address"
        }
      ],
      "name": "collateral",
      "outputs": [
        {
          "name": "",
          "type": "uint256"
        }
      ],
      "payable": false,
      "stateMutability": "view",
      "type": "function"
    },
    {
      "constant": true,
      "inputs": [
        {
          "name": "",
          "type": "address"
        }
      ],
      "name": "loan",
      "outputs": [
        {
          "name": "",
          "type": "uint256"
        }
      ],
      "payable": false,
      "stateMutability": "view",
      "type": "function"
    },
    {
      "constant": true,
      "inputs": [
        {
          "name": "",
          "type": "address"
        }
      ],
      "name": "isBorrowed",
      "outputs": [
        {
          "name": "",
          "type": "bool"
        }
      ],
      "payable": false,
      "stateMutability": "view",
      "type": "function"
    },
    {
      "anonymous": false,
      "inputs": [
        {
          "indexed": true,
          "name": "from",
          "type": "address"
        },
        {
          "indexed": true,
          "name": "to",
          "type": "address"
        },
        {
          "indexed": false,
          "name": "amount",
          "type": "uint256"
        }
      ],
      "name": "TransferMade",
      "type": "event"
    },
    {
      "anonymous": false,
      "inputs": [
        {
          "indexed": true,
          "name": "user",
          "type": "address"
        },
        {
          "indexed": false,
          "name": "amount",
          "type": "uint256"
        }
      ],
      "name": "WithdrawalMade",
      "type": "event"
    },
    {
      "anonymous": false,
      "inputs": [
        {
          "indexed": true,
          "name": "user",
          "type": "address"
        },
        {
          "indexed": false,
          "name": "amount",
          "type": "uint256"
        }
      ],
      "name": "DepositMade",
      "type": "event"
    },
    {
      "anonymous": false,
      "inputs": [
        {
          "indexed": true,
          "name": "user",
          "type": "address"
        },
        {
          "indexed": false,
          "name": "success",
          "type": "bool"
        }
      ],
      "name": "DepositAlreadyActive",
      "type": "event"
    },
    {
      "anonymous": false,
      "inputs": [
        {
          "indexed": true,
          "name": "user",
          "type": "address"
        },
        {
          "indexed": false,
          "name": "success",
          "type": "bool"
        }
      ],
      "name": "NoDeposit",
      "type": "event"
    },
    {
      "anonymous": false,
      "inputs": [
        {
          "indexed": true,
          "name": "user",
          "type": "address"
        },
        {
          "indexed": false,
          "name": "requestedAmount",
          "type": "uint256"
        },
        {
          "indexed": false,
          "name": "availableBalance",
          "type": "uint256"
        },
        {
          "indexed": false,
          "name": "success",
          "type": "bool"
        }
      ],
      "name": "InsufficientBalance",
      "type": "event"
    },
    {
      "anonymous": false,
      "inputs": [
        {
          "indexed": true,
          "name": "user",
          "type": "address"
        },
        {
          "indexed": false,
          "name": "amount",
          "type": "uint256"
        },
        {
          "indexed": false,
          "name": "success",
          "type": "bool"
        }
      ],
      "name": "LoanAttempt",
      "type": "event"
    },
    {
      "anonymous": false,
      "inputs": [
        {
          "indexed": true,
          "name": "user",
          "type": "address"
        }
      ],
      "name": "NoActiveLoan",
      "type": "event"
    },
    {
      "anonymous": false,
      "inputs": [
        {
          "indexed": true,
          "name": "user",
          "type": "address"
        },
        {
          "indexed": false,
          "name": "loanBalance",
          "type": "uint256"
        },
        {
          "indexed": false,
          "name": "userBalance",
          "type": "uint256"
        }
      ],
      "name": "InsufficientBalanceToPayOff",
      "type": "event"
    },
    {
      "anonymous": false,
      "inputs": [
        {
          "indexed": true,
          "name": "user",
          "type": "address"
        },
        {
          "indexed": false,
          "name": "totalRequired",
          "type": "uint256"
        },
        {
          "indexed": false,
          "name": "userBalance",
          "type": "uint256"
        }
      ],
      "name": "InsufficientFunds",
      "type": "event"
    },
    {
      "constant": false,
      "inputs": [],
      "name": "deposit",
      "outputs": [],
      "payable": true,
      "stateMutability": "payable",
      "type": "function"
    },
    {
      "constant": false,
      "inputs": [],
      "name": "withdraw",
      "outputs": [],
      "payable": false,
      "stateMutability": "nonpayable",
      "type": "function"
    },
    {
      "constant": false,
      "inputs": [
        {
          "name": "_to",
          "type": "address"
        },
        {
          "name": "_amount",
          "type": "uint256"
        }
      ],
      "name": "transferEther",
      "outputs": [],
      "payable": false,
      "stateMutability": "nonpayable",
      "type": "function"
    },
    {
      "constant": false,
      "inputs": [
        {
          "name": "_loanAmount",
          "type": "uint256"
        }
      ],
      "name": "borrow",
      "outputs": [],
      "payable": true,
      "stateMutability": "payable",
      "type": "function"
    },
    {
      "constant": false,
      "inputs": [
        {
          "name": "_accounts",
          "type": "address[]"
        },
        {
          "name": "_amount",
          "type": "uint256"
        }
      ],
      "name": "transferToMultipleAccounts",
      "outputs": [],
      "payable": false,
      "stateMutability": "nonpayable",
      "type": "function"
    },
    {
      "constant": true,
      "inputs": [
        {
          "name": "_user",
          "type": "address"
        }
      ],
      "name": "getTransactions",
      "outputs": [
        {
          "components": [
            {
              "name": "from",
              "type": "address"
            },
            {
              "name": "to",
              "type": "address"
            },
            {
              "name": "amount",
              "type": "uint256"
            },
            {
              "name": "transactionType",
              "type": "string"
            },
            {
              "name": "timestamp",
              "type": "uint256"
            }
          ],
          "name": "",
          "type": "tuple[]"
        }
      ],
      "payable": false,
      "stateMutability": "view",
      "type": "function"
    }
  ],
  "bytecode": "0x608060405234801561001057600080fd5b50611f9a806100206000396000f3fe6080604052600436106100b4576000357c01000000000000000000000000000000000000000000000000000000009004806305b1137b146100b95780630f8cda20146100e2578063239fcf0f1461011f5780633ccfd60b1461015c57806373732024146101735780637ee43aff146101b0578063a2c50542146101ed578063a5fdc5de14610216578063b5e2ebc614610253578063c5ebeaec14610290578063cdebd932146102ac578063d0e30db0146102e9575b600080fd5b3480156100c557600080fd5b506100e060048036036100db91908101906118ea565b6102f3565b005b3480156100ee57600080fd5b50610109600480360361010491908101906118c1565b610594565b6040516101169190611c80565b60405180910390f35b34801561012b57600080fd5b50610146600480360361014191908101906118c1565b610795565b6040516101539190611d7d565b60405180910390f35b34801561016857600080fd5b506101716107ad565b005b34801561017f57600080fd5b5061019a600480360361019591908101906118c1565b610bd9565b6040516101a79190611ca2565b60405180910390f35b3480156101bc57600080fd5b506101d760048036036101d291908101906118c1565b610bf9565b6040516101e49190611d7d565b60405180910390f35b3480156101f957600080fd5b50610214600480360361020f9190810190611926565b610c11565b005b34801561022257600080fd5b5061023d600480360361023891908101906118c1565b610f04565b60405161024a9190611d7d565b60405180910390f35b34801561025f57600080fd5b5061027a600480360361027591908101906118c1565b610f1c565b6040516102879190611d7d565b60405180910390f35b6102aa60048036036102a5919081019061197a565b610f34565b005b3480156102b857600080fd5b506102d360048036036102ce91908101906118c1565b611150565b6040516102e09190611ca2565b60405180910390f35b6102f1611170565b005b80600160003373ffffffffffffffffffffffffffffffffffffffff1673ffffffffffffffffffffffffffffffffffffffff1681526020019081526020016000205410156103d1573373ffffffffffffffffffffffffffffffffffffffff167fe77cfc826c3a67c400db402817fe4ee4bf0b4856da503047b67d537d55d8d82382600160003373ffffffffffffffffffffffffffffffffffffffff1673ffffffffffffffffffffffffffffffffffffffff1681526020019081526020016000205460006040516103c493929190611dea565b60405180910390a2610590565b80600160003373ffffffffffffffffffffffffffffffffffffffff1673ffffffffffffffffffffffffffffffffffffffff1681526020019081526020016000205410151515610455576040517f08c379a000000000000000000000000000000000000000000000000000000000815260040161044c90611d1d565b60405180910390fd5b80600160003373ffffffffffffffffffffffffffffffffffffffff1673ffffffffffffffffffffffffffffffffffffffff168152602001908152602001600020600082825403925050819055508173ffffffffffffffffffffffffffffffffffffffff166108fc829081150290604051600060405180830381858888f193505050501580156104e8573d6000803e3d6000fd5b508173ffffffffffffffffffffffffffffffffffffffff163373ffffffffffffffffffffffffffffffffffffffff167f422971e1d1a7c8b68372f65fe1426aef054f0c6290124a929c843c5c019521d6836040516105469190611d7d565b60405180910390a361058f3383836040805190810160405280600881526020017f7472616e7366657200000000000000000000000000000000000000000000000081525061140a565b5b5050565b6060600460008373ffffffffffffffffffffffffffffffffffffffff1673ffffffffffffffffffffffffffffffffffffffff168152602001908152602001600020805480602002602001604051908101604052809291908181526020016000905b8282101561078a578382906000526020600020906005020160a060405190810160405290816000820160009054906101000a900473ffffffffffffffffffffffffffffffffffffffff1673ffffffffffffffffffffffffffffffffffffffff1673ffffffffffffffffffffffffffffffffffffffff1681526020016001820160009054906101000a900473ffffffffffffffffffffffffffffffffffffffff1673ffffffffffffffffffffffffffffffffffffffff1673ffffffffffffffffffffffffffffffffffffffff16815260200160028201548152602001600382018054600181600116156101000203166002900480601f0160208091040260200160405190810160405280929190818152602001828054600181600116156101000203166002900480156107685780601f1061073d57610100808354040283529160200191610768565b820191906000526020600020905b81548152906001019060200180831161074b57829003601f168201915b50505050508152602001600482015481525050815260200190600101906105f5565b505050509050919050565b60016020528060005260406000206000915090505481565b6000803373ffffffffffffffffffffffffffffffffffffffff1673ffffffffffffffffffffffffffffffffffffffff16815260200190815260200160002060009054906101000a900460ff161515610853573373ffffffffffffffffffffffffffffffffffffffff167f8151555bd1b59bf6e8637b0db1de5fd230c6e1b40c8381296d80e8b88553151760006040516108469190611ca2565b60405180910390a2610bd7565b600115156000803373ffffffffffffffffffffffffffffffffffffffff1673ffffffffffffffffffffffffffffffffffffffff16815260200190815260200160002060009054906101000a900460ff1615151415156108e7576040517f08c379a00000000000000000000000000000000000000000000000000000000081526004016108de90611d3d565b60405180910390fd5b6000600160003373ffffffffffffffffffffffffffffffffffffffff1673ffffffffffffffffffffffffffffffffffffffff1681526020019081526020016000205490506000600660003373ffffffffffffffffffffffffffffffffffffffff1673ffffffffffffffffffffffffffffffffffffffff16815260200190815260200160002054420390506000662386f26fc10000600160003373ffffffffffffffffffffffffffffffffffffffff1673ffffffffffffffffffffffffffffffffffffffff168152602001908152602001600020548115156109c457fe5b046301e3623102905060008282029050600081600160003373ffffffffffffffffffffffffffffffffffffffff1673ffffffffffffffffffffffffffffffffffffffff168152602001908152602001600020540190503373ffffffffffffffffffffffffffffffffffffffff166108fc829081150290604051600060405180830381858888f19350505050158015610a60573d6000803e3d6000fd5b506000600660003373ffffffffffffffffffffffffffffffffffffffff1673ffffffffffffffffffffffffffffffffffffffff168152602001908152602001600020819055506000600160003373ffffffffffffffffffffffffffffffffffffffff1673ffffffffffffffffffffffffffffffffffffffff1681526020019081526020016000208190555060008060003373ffffffffffffffffffffffffffffffffffffffff1673ffffffffffffffffffffffffffffffffffffffff16815260200190815260200160002060006101000a81548160ff0219169083151502179055503373ffffffffffffffffffffffffffffffffffffffff167fbc158bb64f05d6383aea69bbb0b20c1bbf4b7a18f63359c5649b7c39e29d388482604051610b889190611d7d565b60405180910390a2610bd13033836040805190810160405280600a81526020017f7769746864726177616c0000000000000000000000000000000000000000000081525061140a565b50505050505b565b60006020528060005260406000206000915054906101000a900460ff1681565b60066020528060005260406000206000915090505481565b600082518202905080600160003373ffffffffffffffffffffffffffffffffffffffff1673ffffffffffffffffffffffffffffffffffffffff168152602001908152602001600020541015610cf5573373ffffffffffffffffffffffffffffffffffffffff167f5c54305ea97a090f7d52fb57465b618e802d25aa7b81e138910eb721cdde8dbd82600160003373ffffffffffffffffffffffffffffffffffffffff1673ffffffffffffffffffffffffffffffffffffffff16815260200190815260200160002054604051610ce7929190611dc1565b60405180910390a250610f00565b80600160003373ffffffffffffffffffffffffffffffffffffffff1673ffffffffffffffffffffffffffffffffffffffff1681526020019081526020016000205410151515610d79576040517f08c379a0000000000000000000000000000000000000000000000000000000008152600401610d7090611d1d565b60405180910390fd5b60008090505b8351811015610efd5782600160003373ffffffffffffffffffffffffffffffffffffffff1673ffffffffffffffffffffffffffffffffffffffff1681526020019081526020016000206000828254039250508190555060008482815181101515610de557fe5b9060200190602002015173ffffffffffffffffffffffffffffffffffffffff168460405180600001905060006040518083038185875af1925050503d8060008114610e4c576040519150601f19603f3d011682016040523d82523d6000602084013e610e51565b606091505b50509050801515610e97576040517f08c379a0000000000000000000000000000000000000000000000000000000008152600401610e8e90611cfd565b60405180910390fd5b610eef338684815181101515610ea957fe5b90602001906020020151866040805190810160405280601181526020017f776f726b666c6f77207472616e7366657200000000000000000000000000000081525061140a565b508080600101915050610d7f565b50505b5050565b60056020528060005260406000206000915090505481565b60026020528060005260406000206000915090505481565b60001515600360003373ffffffffffffffffffffffffffffffffffffffff1673ffffffffffffffffffffffffffffffffffffffff16815260200190815260200160002060009054906101000a900460ff161515141515610fc9576040517f08c379a0000000000000000000000000000000000000000000000000000000008152600401610fc090611cbd565b60405180910390fd5b34600560003373ffffffffffffffffffffffffffffffffffffffff1673ffffffffffffffffffffffffffffffffffffffff1681526020019081526020016000206000828254019250508190555080600260003373ffffffffffffffffffffffffffffffffffffffff1673ffffffffffffffffffffffffffffffffffffffff168152602001908152602001600020600082825401925050819055506001600360003373ffffffffffffffffffffffffffffffffffffffff1673ffffffffffffffffffffffffffffffffffffffff16815260200190815260200160002060006101000a81548160ff0219169083151502179055503373ffffffffffffffffffffffffffffffffffffffff167f9b225c317113b24fb48e173875dca83b389f4b500edb36ceb4b949e00bdce251826001604051611104929190611d98565b60405180910390a261114d3330836040805190810160405280600681526020017f626f72726f77000000000000000000000000000000000000000000000000000081525061140a565b50565b60036020528060005260406000206000915054906101000a900460ff1681565b600015156000803373ffffffffffffffffffffffffffffffffffffffff1673ffffffffffffffffffffffffffffffffffffffff16815260200190815260200160002060009054906101000a900460ff161515141515611204576040517f08c379a00000000000000000000000000000000000000000000000000000000081526004016111fb90611d5d565b60405180910390fd5b662386f26fc100003410151515611250576040517f08c379a000000000000000000000000000000000000000000000000000000000815260040161124790611cdd565b60405180910390fd5b34600160003373ffffffffffffffffffffffffffffffffffffffff1673ffffffffffffffffffffffffffffffffffffffff1681526020019081526020016000206000828254019250508190555042600660003373ffffffffffffffffffffffffffffffffffffffff1673ffffffffffffffffffffffffffffffffffffffff1681526020019081526020016000205401600660003373ffffffffffffffffffffffffffffffffffffffff1673ffffffffffffffffffffffffffffffffffffffff1681526020019081526020016000208190555060016000803373ffffffffffffffffffffffffffffffffffffffff1673ffffffffffffffffffffffffffffffffffffffff16815260200190815260200160002060006101000a81548160ff0219169083151502179055503373ffffffffffffffffffffffffffffffffffffffff167fd15c9547ea5c06670c0010ce19bc32d54682a4b3801ece7f3ab0c3f17106b4bb346040516113bf9190611d7d565b60405180910390a26114083330346040805190810160405280600781526020017f6465706f7369740000000000000000000000000000000000000000000000000081525061140a565b565b6114126116ff565b60a0604051908101604052808673ffffffffffffffffffffffffffffffffffffffff1681526020018573ffffffffffffffffffffffffffffffffffffffff168152602001848152602001838152602001428152509050600460008673ffffffffffffffffffffffffffffffffffffffff1673ffffffffffffffffffffffffffffffffffffffff168152602001908152602001600020819080600181540180825580915050906001820390600052602060002090600502016000909192909190915060008201518160000160006101000a81548173ffffffffffffffffffffffffffffffffffffffff021916908373ffffffffffffffffffffffffffffffffffffffff16021790555060208201518160010160006101000a81548173ffffffffffffffffffffffffffffffffffffffff021916908373ffffffffffffffffffffffffffffffffffffffff16021790555060408201518160020155606082015181600301908051906020019061158792919061175b565b50608082015181600401555050508373ffffffffffffffffffffffffffffffffffffffff168573ffffffffffffffffffffffffffffffffffffffff161415156116f857600460008573ffffffffffffffffffffffffffffffffffffffff1673ffffffffffffffffffffffffffffffffffffffff168152602001908152602001600020819080600181540180825580915050906001820390600052602060002090600502016000909192909190915060008201518160000160006101000a81548173ffffffffffffffffffffffffffffffffffffffff021916908373ffffffffffffffffffffffffffffffffffffffff16021790555060208201518160010160006101000a81548173ffffffffffffffffffffffffffffffffffffffff021916908373ffffffffffffffffffffffffffffffffffffffff1602179055506040820151816002015560608201518160030190805190602001906116e992919061175b565b50608082015181600401555050505b5050505050565b60a060405190810160405280600073ffffffffffffffffffffffffffffffffffffffff168152602001600073ffffffffffffffffffffffffffffffffffffffff1681526020016000815260200160608152602001600081525090565b828054600181600116156101000203166002900490600052602060002090601f016020900481019282601f1061179c57805160ff19168380011785556117ca565b828001600101855582156117ca579182015b828111156117c95782518255916020019190600101906117ae565b5b5090506117d791906117db565b5090565b6117fd91905b808211156117f95760008160009055506001016117e1565b5090565b90565b600061180c8235611eee565b905092915050565b60006118208235611f00565b905092915050565b600082601f830112151561183b57600080fd5b813561184e61184982611e4e565b611e21565b9150818183526020840193506020810190508385602084028201111561187357600080fd5b60005b838110156118a357816118898882611800565b845260208401935060208301925050600181019050611876565b5050505092915050565b60006118b98235611f12565b905092915050565b6000602082840312156118d357600080fd5b60006118e184828501611800565b91505092915050565b600080604083850312156118fd57600080fd5b600061190b85828601611814565b925050602061191c858286016118ad565b9150509250929050565b6000806040838503121561193957600080fd5b600083013567ffffffffffffffff81111561195357600080fd5b61195f85828601611828565b9250506020611970858286016118ad565b9150509250929050565b60006020828403121561198c57600080fd5b600061199a848285016118ad565b91505092915050565b6119ac81611ea6565b82525050565b60006119bd82611e83565b808452602084019350836020820285016119d685611e76565b60005b84811015611a0f5783830388526119f1838351611bfb565b92506119fc82611e99565b91506020880197506001810190506119d9565b508196508694505050505092915050565b611a2981611eb8565b82525050565b6000611a3a82611e8e565b808452611a4e816020860160208601611f1c565b611a5781611f4f565b602085010191505092915050565b6000601282527f4c6f616e20616c72656164792074616b656e00000000000000000000000000006020830152604082019050919050565b6000602282527f4572726f722c206465706f736974206d757374206265203e3d20302e3031204560208301527f54480000000000000000000000000000000000000000000000000000000000006040830152606082019050919050565b6000601482527f4661696c656420746f2073656e642045746865720000000000000000000000006020830152604082019050919050565b6000601482527f496e73756666696369656e742062616c616e63650000000000000000000000006020830152604082019050919050565b6000602382527f206e6f2070726576696f7573206465706f7369747320686173206265656e206d60208301527f61646500000000000000000000000000000000000000000000000000000000006040830152606082019050919050565b6000601d82527f4572726f722c206465706f73697420616c7265616479206163746976650000006020830152604082019050919050565b600060a083016000830151611c1360008601826119a3565b506020830151611c2660208601826119a3565b506040830151611c396040860182611c71565b5060608301518482036060860152611c518282611a2f565b9150506080830151611c666080860182611c71565b508091505092915050565b611c7a81611ee4565b82525050565b60006020820190508181036000830152611c9a81846119b2565b905092915050565b6000602082019050611cb76000830184611a20565b92915050565b60006020820190508181036000830152611cd681611a65565b9050919050565b60006020820190508181036000830152611cf681611a9c565b9050919050565b60006020820190508181036000830152611d1681611af9565b9050919050565b60006020820190508181036000830152611d3681611b30565b9050919050565b60006020820190508181036000830152611d5681611b67565b9050919050565b60006020820190508181036000830152611d7681611bc4565b9050919050565b6000602082019050611d926000830184611c71565b92915050565b6000604082019050611dad6000830185611c71565b611dba6020830184611a20565b9392505050565b6000604082019050611dd66000830185611c71565b611de36020830184611c71565b9392505050565b6000606082019050611dff6000830186611c71565b611e0c6020830185611c71565b611e196040830184611a20565b949350505050565b6000604051905081810181811067ffffffffffffffff82111715611e4457600080fd5b8060405250919050565b600067ffffffffffffffff821115611e6557600080fd5b602082029050602081019050919050565b6000602082019050919050565b600081519050919050565b600081519050919050565b6000602082019050919050565b6000611eb182611ec4565b9050919050565b60008115159050919050565b600073ffffffffffffffffffffffffffffffffffffffff82169050919050565b6000819050919050565b6000611ef982611ec4565b9050919050565b6000611f0b82611ec4565b9050919050565b6000819050919050565b60005b83811015611f3a578082015181840152602081019050611f1f565b83811115611f49576000848401525b50505050565b6000601f19601f830116905091905056fea265627a7a72305820e7fe5798344fab340c1cd343f4d54f131068ab595cdf3ba8ee3d3e88b918f1b46c6578706572696d656e74616cf50037",
  "source": "// SPDX-License-Identifier: MIT\r\npragma solidity >=0.4.22 <0.9.0;\r\npragma experimental ABIEncoderV2;\r\n\r\ncontract bankingSystem {\r\n\r\n        struct Transaction {\r\n        address from;\r\n        address to;\r\n        uint amount;\r\n        string transactionType;\r\n        uint timestamp;\r\n    }\r\n\r\n    mapping(address => bool) public isDeposited;\r\n    mapping(address => uint) public Balance;\r\n    mapping(address => uint) public loan;\r\n    mapping(address => bool) public isBorrowed;\r\n    mapping(address => Transaction[]) private transactions;\r\n    mapping(address => uint) public collateral;\r\n    mapping(address => uint) public TimeOfDeposit;\r\n\r\n\r\n\r\n\r\n    // Events\r\n    event TransferMade(address indexed from, address indexed to, uint amount);\r\n    event WithdrawalMade(address indexed user, uint amount);\r\n    event DepositMade(address indexed user, uint amount);\r\n    // Event for Already Active Deposit\r\n    event DepositAlreadyActive(address indexed user,  bool success);\r\n    // Event for No Deposit Scenario\r\n    event NoDeposit(address indexed user,  bool success);\r\n    // Event for Insufficient Balance\r\n    event InsufficientBalance(address indexed user, uint requestedAmount, uint availableBalance,  bool success);\r\n    // Event for Loan Attempt with Boolean Flag\r\n    event LoanAttempt(address indexed user, uint amount, bool success);\r\n    // Events for loan payoff disapproval\r\n    event NoActiveLoan(address indexed user);\r\n    event InsufficientBalanceToPayOff(address indexed user, uint loanBalance, uint userBalance);\r\n    // Event for Insufficient Funds for transfering to multiple accounts\r\n    event InsufficientFunds(address indexed user, uint totalRequired, uint userBalance);\r\n\r\n\r\n\r\n    // Deposit function\r\n    function deposit() payable public {\r\n\r\n        require(isDeposited[msg.sender] == false, 'Error, deposit already active');\r\n        require(msg.value >= 1e16, 'Error, deposit must be >= 0.01 ETH');\r\n        Balance[msg.sender] += msg.value;\r\n        TimeOfDeposit[msg.sender] = TimeOfDeposit[msg.sender] + block.timestamp;\r\n        isDeposited[msg.sender] = true;\r\n        emit DepositMade(msg.sender, msg.value);\r\n        recordTransaction(msg.sender, address(this), msg.value, \"deposit\");\r\n\r\n    }\r\n\r\n\r\n\r\n        \r\n    // Updated Withdraw function\r\n    function withdraw() public {\r\n        // Check if the user has made a deposit\r\n        if (!isDeposited[msg.sender]) {\r\n            emit NoDeposit(msg.sender, false);\r\n            return; // Return early if the user has not made any deposit\r\n        }\r\n\r\n        require(isDeposited[msg.sender] == true, ' no previous deposits has been made');\r\n        uint userBalance = Balance[msg.sender]; // For event\r\n\r\n        uint depositTime = block.timestamp - TimeOfDeposit[msg.sender];\r\n        uint interestPerSecond = 31679025 * (Balance[msg.sender] / 1e16);\r\n        uint interest = interestPerSecond * depositTime;\r\n\r\n        // Add interest to the user's balance before transfer\r\n        uint totalAmount = Balance[msg.sender] + interest; \r\n\r\n        msg.sender.transfer(totalAmount); \r\n\r\n        TimeOfDeposit[msg.sender] = 0;\r\n        Balance[msg.sender] = 0;\r\n        isDeposited[msg.sender] = false;\r\n\r\n        emit WithdrawalMade(msg.sender, totalAmount); // Existing event\r\n        recordTransaction(address(this), msg.sender, totalAmount, \"withdrawal\");\r\n\r\n    }\r\n\r\n\r\n    // Transfer Ether function\r\n    function transferEther(address payable _to, uint _amount) public {\r\n        // Check if the user has enough balance to transfer\r\n        if (Balance[msg.sender] < _amount) {\r\n            emit InsufficientBalance(msg.sender, _amount, Balance[msg.sender], false);\r\n            return; // Return early if the user's balance is insufficient\r\n        }\r\n        require(Balance[msg.sender] >= _amount, \"Insufficient balance\");\r\n        Balance[msg.sender] -= _amount;\r\n        _to.transfer(_amount);\r\n        emit TransferMade(msg.sender, _to, _amount);\r\n        recordTransaction(msg.sender, _to, _amount, \"transfer\");\r\n\r\n    }\r\n\r\n\r\n\r\n    // Borrow function\r\n    function borrow(uint _loanAmount) payable public {\r\n        // if (isBorrowed[msg.sender]) {\r\n        //     emit LoanAttempt(msg.sender, _loanAmount, false); // Emit event with false for already existing loan\r\n        //     return; // Return early if the user already has a loan\r\n        // }\r\n\r\n        require(isBorrowed[msg.sender] == false, \"Loan already taken\");\r\n        collateral[msg.sender] += msg.value;\r\n        loan[msg.sender] += _loanAmount;\r\n\r\n        // If the loan is successful:\r\n        isBorrowed[msg.sender] = true;\r\n        emit LoanAttempt(msg.sender, _loanAmount, true); // Emit event with true for successful loan\r\n        recordTransaction(msg.sender, address(this), _loanAmount, \"borrow\");\r\n\r\n    }\r\n\r\n\r\n\r\n\r\n\r\n    // Function to transfer Ether to multiple accounts\r\n    function transferToMultipleAccounts(address[] memory _accounts, uint _amount) public {\r\n        uint totalAmount = _amount * _accounts.length;\r\n        \r\n        // Check if user has enough balance to transfer\r\n        if (Balance[msg.sender] < totalAmount) {\r\n            emit InsufficientFunds(msg.sender, totalAmount, Balance[msg.sender]);\r\n            return; // Return early if insufficient funds\r\n        }\r\n\r\n        require(Balance[msg.sender] >= totalAmount, \"Insufficient balance\");\r\n\r\n        for (uint i = 0; i < _accounts.length; i++) {\r\n            Balance[msg.sender] -= _amount;\r\n            (bool sent, ) = _accounts[i].call.value(_amount)(\"\");\r\n            require(sent, \"Failed to send Ether\");\r\n            recordTransaction(msg.sender, _accounts[i], _amount, \"workflow transfer\");\r\n\r\n        }\r\n    }\r\n\r\n    // Function to record a transaction\r\n    function recordTransaction(address _from, address _to, uint _amount, string memory _transactionType) private {\r\n        Transaction memory newTransaction = Transaction({\r\n            from: _from,\r\n            to: _to,\r\n            amount: _amount,\r\n            transactionType: _transactionType,\r\n            timestamp: block.timestamp\r\n        });\r\n\r\n        transactions[_from].push(newTransaction);\r\n        if (_from != _to) {\r\n            transactions[_to].push(newTransaction);\r\n        }\r\n    }\r\n\r\n    // Getter function to view transactions of a specific user\r\n    function getTransactions(address _user) public view returns (Transaction[] memory) {\r\n        return transactions[_user];\r\n    }\r\n}\r\n\r\n\r\n\r\n\r\n\r\n\r\n\r\n",
  "sourcePath": "E:\\University\\Semester 7\\Blockchain\\project\\BlockChain_Final_project_my\\BlockChain_Final_project_my\\contracts\\Bank.sol",
  "compiler": {
    "name": "solc",
    "version": "0.5.1+commit.c8a2cb62.Emscripten.clang"
  },
  "schemaVersion": "3.4.16",
  "updatedAt": "2023-12-04T15:49:28.579Z",
  "networkType": "ethereum",
  "devdoc": {
    "methods": {}
  },
  "userdoc": {
    "methods": {}
  }
}